{
  "transactions": [
    {
      "hash": "0x8cb370393096b730b44664e045d4699592db3bd27dd87f598d4c270b528307b5",
      "transactionType": "CALL",
      "contractName": null,
      "contractAddress": "0x42cf0adfc26fa8231cbcfe03242ee5c54dc02704",
      "function": "mintNft(string)",
      "arguments": [
        "\"ipfs://bafybeig37ioir76s7mg5oobetncojcm3c3hxasyd4rvid4jqhy4gkaheg4/?filename=0-PUG.json\""
      ],
      "transaction": {
        "from": "0xaef889a85049951cc22a4662ea57311db48479e9",
        "to": "0x42cf0adfc26fa8231cbcfe03242ee5c54dc02704",
        "gas": "0x34c77",
        "value": "0x0",
        "input": "0xda86f4a900000000000000000000000000000000000000000000000000000000000000200000000000000000000000000000000000000000000000000000000000000057697066733a2f2f62616679626569673337696f6972373673376d67356f6f6265746e636f6a636d3363336878617379643472766964346a71687934676b61686567342f3f66696c656e616d653d302d5055472e6a736f6e000000000000000000",
        "nonce": "0x6a",
        "chainId": "0xaa36a7"
      },
      "additionalContracts": [],
      "isFixedGasLimit": false
    }
  ],
  "receipts": [
    {
      "status": "0x1",
      "cumulativeGasUsed": "0x1bbd4d9",
      "logs": [
        {
          "address": "0x42cf0adfc26fa8231cbcfe03242ee5c54dc02704",
          "topics": [
            "0xddf252ad1be2c89b69c2b068fc378daa952ba7f163c4a11628f55a4df523b3ef",
            "0x0000000000000000000000000000000000000000000000000000000000000000",
            "0x000000000000000000000000aef889a85049951cc22a4662ea57311db48479e9",
            "0x0000000000000000000000000000000000000000000000000000000000000002"
          ],
          "data": "0x",
          "blockHash": "0x65921e4161b332b3c9a6be367667235186cb44ae90bc73ec25b6f38509e924a4",
          "blockNumber": "0x613593",
          "transactionHash": "0x8cb370393096b730b44664e045d4699592db3bd27dd87f598d4c270b528307b5",
          "transactionIndex": "0x4c",
          "logIndex": "0x219a",
          "removed": false
        }
      ],
      "logsBloom": "0x04000000000000000000000000200000000200400000000000000000000000000000000000000000000000000000000000000000000000000000000000000000000000000000000000000008000000000000000000000000000000000000000000000000020000000000000000000800000040000000000000000010000000000000000000000000000000000000000000000000000000000000000000000000000000000000000000000100000000000000000000000000000000000000000000000002000000000000000000000200000000020000000000000000000020000000000000000000000000000000000000000000008000000000000000000000",
      "type": "0x2",
      "transactionHash": "0x8cb370393096b730b44664e045d4699592db3bd27dd87f598d4c270b528307b5",
      "transactionIndex": "0x4c",
      "blockHash": "0x65921e4161b332b3c9a6be367667235186cb44ae90bc73ec25b6f38509e924a4",
      "blockNumber": "0x613593",
      "gasUsed": "0x2416a",
      "effectiveGasPrice": "0x13394e2",
      "from": "0xaef889a85049951cc22a4662ea57311db48479e9",
      "to": "0x42cf0adfc26fa8231cbcfe03242ee5c54dc02704",
      "contractAddress": null
    }
  ],
  "libraries": [],
  "pending": [],
  "returns": {},
  "timestamp": 1721870920,
  "chain": 11155111,
  "commit": "34a4700"
}