{
  "transactions": [
    {
      "hash": "0xcaf6e278271f656bdb7bbe74be6100909381e1ffb55d18415342ec5530d1122b",
      "transactionType": "CALL",
      "contractName": null,
      "contractAddress": "0x42cf0adfc26fa8231cbcfe03242ee5c54dc02704",
      "function": "mintNft(string)",
      "arguments": [
        "\"ipfs://bafybeig37ioir76s7mg5oobetncojcm3c3hxasyd4rvid4jq2eukebz5su/?filename=0-PUG.json\""
      ],
      "transaction": {
        "from": "0xaef889a85049951cc22a4662ea57311db48479e9",
        "to": "0x42cf0adfc26fa8231cbcfe03242ee5c54dc02704",
        "gas": "0x40fd9",
        "value": "0x0",
        "input": "0xda86f4a900000000000000000000000000000000000000000000000000000000000000200000000000000000000000000000000000000000000000000000000000000057697066733a2f2f62616679626569673337696f6972373673376d67356f6f6265746e636f6a636d3363336878617379643472766964346a713265756b65627a3573752f3f66696c656e616d653d302d5055472e6a736f6e000000000000000000",
        "nonce": "0x68",
        "chainId": "0xaa36a7"
      },
      "additionalContracts": [],
      "isFixedGasLimit": false
    }
  ],
  "receipts": [
    {
      "status": "0x1",
      "cumulativeGasUsed": "0x1741a94",
      "logs": [
        {
          "address": "0x42cf0adfc26fa8231cbcfe03242ee5c54dc02704",
          "topics": [
            "0xddf252ad1be2c89b69c2b068fc378daa952ba7f163c4a11628f55a4df523b3ef",
            "0x0000000000000000000000000000000000000000000000000000000000000000",
            "0x000000000000000000000000aef889a85049951cc22a4662ea57311db48479e9",
            "0x0000000000000000000000000000000000000000000000000000000000000000"
          ],
          "data": "0x",
          "blockHash": "0xdf663316689070e8cc51a873044048960faf983b007425af97e0a6df72035098",
          "blockNumber": "0x612d6f",
          "transactionHash": "0xcaf6e278271f656bdb7bbe74be6100909381e1ffb55d18415342ec5530d1122b",
          "transactionIndex": "0xb0",
          "logIndex": "0x109",
          "removed": false
        }
      ],
      "logsBloom": "0x00000000000000000000000000200000000200400000000000000000000000000000000000000000000000000000000000000000000000000000000000000000000000000000000000000008000000000000000000000000000000000000000000000000020000000000000000000800000040000000000000000010000000000000000000000000000000000000000000000000000000000000000000000000000000000000000000000000000000000000000000000000000000000000000000000002000000000000000000000200000000020000000000000000000020000000000000000000000000000000000000000000000000000000000000000000",
      "type": "0x2",
      "transactionHash": "0xcaf6e278271f656bdb7bbe74be6100909381e1ffb55d18415342ec5530d1122b",
      "transactionIndex": "0xb0",
      "blockHash": "0xdf663316689070e8cc51a873044048960faf983b007425af97e0a6df72035098",
      "blockNumber": "0x612d6f",
      "gasUsed": "0x2c702",
      "effectiveGasPrice": "0x4e697b1bd",
      "from": "0xaef889a85049951cc22a4662ea57311db48479e9",
      "to": "0x42cf0adfc26fa8231cbcfe03242ee5c54dc02704",
      "contractAddress": null
    }
  ],
  "libraries": [],
  "pending": [],
  "returns": {},
  "timestamp": 1721840044,
  "chain": 11155111,
  "commit": "34a4700"
}