{
  "transactions": [
    {
      "hash": "0x0b8e8ca49e1ca296ed4f7b7c2d1d9a65283865c30d82d3cd1b68aabad966cfa3",
      "transactionType": "CALL",
      "contractName": null,
      "contractAddress": "0x42cf0adfc26fa8231cbcfe03242ee5c54dc02704",
      "function": "mintNft(string)",
      "arguments": [
        "\"ipfs://bafybeig37ioir76s7mg5oobetncojcm3c3hxasyd4rvid4jqhy4gkaheg4/?filename=0-PUG.json\""
      ],
      "transaction": {
        "from": "0xaef889a85049951cc22a4662ea57311db48479e9",
        "to": "0x42cf0adfc26fa8231cbcfe03242ee5c54dc02704",
        "gas": "0x34c77",
        "value": "0x0",
        "input": "0xda86f4a900000000000000000000000000000000000000000000000000000000000000200000000000000000000000000000000000000000000000000000000000000057697066733a2f2f62616679626569673337696f6972373673376d67356f6f6265746e636f6a636d3363336878617379643472766964346a71687934676b61686567342f3f66696c656e616d653d302d5055472e6a736f6e000000000000000000",
        "nonce": "0x69",
        "chainId": "0xaa36a7"
      },
      "additionalContracts": [],
      "isFixedGasLimit": false
    }
  ],
  "receipts": [
    {
      "status": "0x1",
      "cumulativeGasUsed": "0x60e8d1",
      "logs": [
        {
          "address": "0x42cf0adfc26fa8231cbcfe03242ee5c54dc02704",
          "topics": [
            "0xddf252ad1be2c89b69c2b068fc378daa952ba7f163c4a11628f55a4df523b3ef",
            "0x0000000000000000000000000000000000000000000000000000000000000000",
            "0x000000000000000000000000aef889a85049951cc22a4662ea57311db48479e9",
            "0x0000000000000000000000000000000000000000000000000000000000000001"
          ],
          "data": "0x",
          "blockHash": "0x5ef87582b23adba64b4d584397c0a270950010b70ad16dbb5246bd3caf83f4e5",
          "blockNumber": "0x612df0",
          "transactionHash": "0x0b8e8ca49e1ca296ed4f7b7c2d1d9a65283865c30d82d3cd1b68aabad966cfa3",
          "transactionIndex": "0x37",
          "logIndex": "0x4e",
          "removed": false
        }
      ],
      "logsBloom": "0x00000000000000000000000000200000000200400000000000000000000000000000000000000000000000000000000000000000000000000000000000040000000000000000000000000008000000000000000000040000000000000000000000000000020000000000000000000800000040000000000000000010000000000000000000000000000000000000000000000000000000000000000000000000000000000000000000000000000000000000000000000000000000000000000000000002000000000000000000000200000000020000000000000000000060000000000000000000000000000000000000000000000000000000000000000000",
      "type": "0x2",
      "transactionHash": "0x0b8e8ca49e1ca296ed4f7b7c2d1d9a65283865c30d82d3cd1b68aabad966cfa3",
      "transactionIndex": "0x37",
      "blockHash": "0x5ef87582b23adba64b4d584397c0a270950010b70ad16dbb5246bd3caf83f4e5",
      "blockNumber": "0x612df0",
      "gasUsed": "0x2416a",
      "effectiveGasPrice": "0x5a4aa1adb",
      "from": "0xaef889a85049951cc22a4662ea57311db48479e9",
      "to": "0x42cf0adfc26fa8231cbcfe03242ee5c54dc02704",
      "contractAddress": null
    }
  ],
  "libraries": [],
  "pending": [],
  "returns": {},
  "timestamp": 1721841965,
  "chain": 11155111,
  "commit": "34a4700"
}